:100000000C94CA050C94E7050C94E7050C94043194
:100010000C94E7050C94E7050C94E7050C94E705B0
:100020000C94E7050C94E7050C94E01B0C949C1BC6
:100030000C9466280C94E7050C94E7050C94E705EE
:100040000C94E7050C94E7050C94E7050C94E70580
:100050000C94E7050C94B91C0C94E7050C94E70587
:100060000C94E7050C94E7050C94E7050C94E70560
:100070000C94E7050C94E7050C94E7050C94E70550
:100080000C94E7050C94E7050C94E7050C94E70540
:100090000C94E7050C94E7050C94E7050C94E70530
:1000A0000C94E7050C94E7050C94E705050109801D
:1000B000A101850319012AB700150126B700950192
:1000C00075108100C0050C0901A101850419012AE0
:1000D000A002150126A002950175108100C00660DE
:1000E000FF0961A1010962150026FF00952075082E
:1000F00081020963150026FF00952075089102C052
:1001000005010906A101050719E029E715002501E8
:10011000950875018102950175088101050719008F
:1001200029FF150026FF00950675088100050819AE
:10013000012905950575019102950175039101C08D
:1001400000000000000000000000000000000000AF
:10015000000000000000000000000000000000009F
:10016000000000007E0F00D4FFFFFFC700000078F2
:1001700000000000000000002A2B28000000000002
:100180000000000000000000000000290000000046
:100190002C1E3420212224342627252E362D3738B4
:1001A000271E1F202122232425263333362E3738BD
:1001B0001F0405060708090A0B0C0D0E0F1011127B
:1001C000131415161718191A1B1C1D2F3130232D47
:1001D000350405060708090A0B0C0D0E0F10111245
:1001E000131415161718191A1B1C1D2F3130354CF6
:1001F00000DA0281FFD9F1DB20A4A62EAF00A0C057
:1002000000A1C800AED580A81FD300408D142000E7
:100210003F3F3F20200041646A20200053796D2039
:1002200020004E6176202000416C70686100202023
:10023000202020002043415020000A0A0A0A0A0A0E
:100240000A0A0A000A0A0A005370005620005320C6
:10025000004820004D6F0057494E0A004D41430AA7
:1002600000536F666C6543686F63205F5F5F5F5F1D
:1002700000808182838485868788898A8B8C8D8E95
:100280008F9091929394A0A1A2A3A4A5A6A7A8A998
:10029000AAABACADAEAFB0B1B2B3B4C0C1C2C3C40F
:1002A000C5C6C7C8C9CACBCCCDCECFD0D1D2D3D486
:1002B000000001010101010101010102020202022B
:1002C00002020202030303030303030304040404FE
:1002D00004040405050505050606060606070707C6
:1002E000070708080808090909090A0A0A0B0B0B7D
:1002F0000C0C0C0D0D0D0E0E0E0F0F0F101011111A
:10030000111212131314141515161617171818199D
:10031000191A1A1B1B1C1D1D1E1E1F202021222204
:10032000232424252626272829292A2B2C2D2D2E47
:100330002F30313232333435363738393A3B3C3D61
:100340003E3F404142434445464748494A4C4D4E52
:100350004F50515354555658595A5B5D5E5F616218
:1003600064656668696B6C6D6F7072737577787AA7
:100370007B7D7E8082838587888A8C8E8F91939502
:1003800096989A9C9EA0A2A3A5A7A9ABADAFB1B326
:10039000B5B7BABCBEC0C2C4C6C9CBCDCFD1D4D606
:1003A000D8DBDDDFE2E4E7E9EBEEF0F3F5F8FAFDA8
:1003B000FF07087F0807003E5B4F5B3E003E6B4F28
:1003C0006B3E001C3E7C3E1C00183C7E3C18001C12
:1003D000577D571C001C5E7F5E1C0000183C1800F7
:1003E00000FFE7C3E7FF00001824180000FFE7DB69
:1003F000E7FF0030483A060E0026297929260040FA
:100400007F05050700407F05253F005A3CE73C5A21
:10041000007F3E1C1C0800081C1C3E7F0014227F2D
:100420002214005F5F005F5F0006097F017F00000C
:100430006689956A0060606060600094A2FFA29483
:100440000008047E04080010207E20100008082AFE
:100450001C0800081C2A0808001E10101010000CB0
:100460001E0C1E0C0030383E383000060E3E0E06C4
:100470000000000000000000005F00000000070016
:10048000070000147F147F1400242A7F2A120023FF
:100490001308646200364956205000000807030024
:1004A00000001C224100000041221C00002A1C7F89
:1004B0001C2A0008083E0808000080703000000870
:1004C000080808080000006060000020100804020E
:1004D000003E5149453E0000427F400000724949BC
:1004E0004946002141494D33001814127F1000275E
:1004F00045454539003C4A49493100412111090728
:1005000000364949493600464949291E0000001471
:1005100000000000403400000000081422410014D4
:100520001414141400004122140800020159090691
:10053000003E415D594E007C1211127C007F4949FA
:100540004936003E41414122007F4141413E007F0A
:1005500049494941007F09090901003E4141517360
:10056000007F0808087F0000417F410000204041D3
:100570003F01007F08142241007F40404040007F3F
:10058000021C027F007F0408107F003E4141413E73
:10059000007F09090906003E4151215E007F0919CB
:1005A00029460026494949320003017F0103003FE3
:1005B0004040403F001F2040201F003F4038403F48
:1005C00000631408146300030478040300615949AC
:1005D0004D4300007F41414100020408102000000B
:1005E0004141417F0004020102040040404040407C
:1005F000000003070800002054547840007F28447E
:10060000443800384444442800384444287F0038A3
:10061000545454180000087E09020018A4A49C78C1
:10062000007F080404780000447D40000020404022
:100630003D00007F102844000000417F4000007C06
:1006400004780478007C0804047800384444443872
:1006500000FC182424180018242418FC007C08042A
:1006600004080048545454240004043F4424003C2B
:100670004040207C001C2040201C003C4030403C7E
:10068000004428102844004C9090907C004464540E
:100690004C440000083641000000007700000000D4
:1006A00041360800000201020402003C2623263CD9
:1006B00000000000000000404040F0F8F8FF38FF64
:1006C000F8F83FF8F8FF38FFF8F8F0404040000035
:1006D0000000000080C0C0C0800000C0C0800000DA
:1006E0000080C0C000C0C0000080C0C0000000008A
:1006F00000C0C0C0C0C000C0C000000000000000BA
:1007000000000000000000000000000000000000E9
:1007100000000000000000000000000000000000D9
:1007200000000000000000000000000000000000C9
:10073000C0F0F8FC3E1E06010000007F4141417FF1
:10074000007F4141417F000080C0E07E5B4F5BFE47
:10075000C00000C000DCD7DEDEDED7DC00C0000059
:100760000000000000000000000000000000000089
:1007700000000000000000494949FFFFFFFFE0DFE3
:10078000BFBF00BFBFDFE0FFFFFFFF4949490000D7
:100790000000001F3F6060E0BF1F007F7F071E3822
:1007A0001E077F7F007F7F0E1F3B716000000000EF
:1007B000007F7F0C0C0C007E7E007F7E0303007F99
:1007C0007E03037E7E03037F7E000F3E703C063C6B
:1007D000703E0F00327B49493F7E007F7E0303005D
:1007E0001E3F69696F260000000000000000000045
:1007F000030F1F3F3C7870600000007F4141417F44
:10080000007F4141417F00307B7F7830202030786D
:100810007F3B0003000F7F0F0F0F7F0F00030000CF
:1008200000000000000000000000000000000000C8
:1008300000000000000000010101070F0F7F0F7F83
:100840000F0F7E0F0F7F0F7F0F0F070101010000B9
:100850000000000000000000010100000000000096
:100860000000000000000000000000000000000088
:100870000000000000000000000000000000000078
:100880000000000000000000000000000000000068
:100890000000000000000000000000000000000058
:1008A0000000000000000000000000000000000048
:1008B0000000000000000000000000000000000038
:1008C0000000000000000000000000000000000028
:1008D0000000000000000000000000000000000018
:1008E0000000000000000000000000000000000008
:1008F0000000AF00AE35001E001F002000210022C6
:1009000000290014001A000800150017002B00042D
:10091000001600070009000A00E1001D001B000688
:100920000019000500E300E200E000007E2800A8B6
:10093000003500270026002500240023002A00138C
:100940000012000C0018001C00340033000F000ED1
:10095000000D000B00E500380037003600100011D4
:1009600000E700E600E400017E2C00AE000100017B
:10097000000100010001000100010049004600657E
:1009800000000000000100E200E000E1000000398A
:100990000001007A007B007C007D00000001000166
:1009A000000100010001000100010001000100013F
:1009B00000010001002A00067E037E5200027E4BE9
:1009C000002A004C004F00510050004E0001000072
:1009D00000057E0000047E0000010001000100010E
:1009E000000100010001003A003B003C003D003ED8
:1009F0000035001E001F0020002100220001001E03
:100A0000021F0220022102220201002E002D002ED0
:100A1000022F02300201000100010001000100016B
:100A200000440043004200410040003F00450027D1
:100A3000002600250024002300310227022602257B
:100A40000224022302010031003302330030002F60
:100A50000001000100010001000100010000000090
:100A6000000000000000000000007C2978277825A5
:100A7000782378217800002A78287826782478222C
:100A8000781D70000000000000000000000100015F
:100A90000001000100010000000000000000000053
:100AA0000000000000000000000000000000000046
:100AB0000000000000A900A800AA0000000000003B
:100AC00000AB00AE00AC000000010001000100011D
:100AD00000010000004E004B00A900AA002378246A
:100AE00078257826782778287829782A7821782216
:100AF0007850004F0009025B00030100A0FA0904CE
:100B00000000010301010009211101000122400040
:100B10000705810308000109040100020300000029
:100B20000921110100012222000705820320000192
:100B3000070503032000010904020001030000006F
:100B40000921110100012232000705840320000160
:100B5000120100020000000832FC870201000102BD
:100B60000001160353006F0066006C006500200052
:100B7000430068006F00630000001403420072002D
:100B8000690061006E0020004C006F0077000000DB
:100B90000403090411241FBECFEFDAE0DEBFCDBF8E
:100BA00012E0A0E0B1E0EAE3F7E602C005900D92A2
:100BB000A63BB107D9F726E0A6EBB2E001C01D9233
:100BC000A23DB207E1F70E948D280C942B330C94C0
:100BD0000000E8EDF0E080818E7F80831092E200DB
:100BE0001092DA001092E100A0EEB0E08C918160EA
:100BF0008C9380818F77808319BCA7EDB0E08C91B6
:100C00008E7F8C9380818F7E80831092B7060895AB
:100C10002091E4003091E50095E6A9012091EC00D7
:100C2000822F817020FF06C08091E80080FF06C0FF
:100C300080E008952091E80022FD1AC08091C4064A
:100C4000882389F0853089F08091EB0085FD0FC005
:100C50002091E4003091E50042175307F9F29150DA
:100C6000E1F684E0089582E0089583E0089581E04C
:100C700008958091C60687FF13C08091E80082FF27
:100C800006C08091E8008B778093E80004C08091D3
:100C9000C4068111F2CF08958091C4068823D9F348
:100CA0008091E80080FFF8CF8091E8008E77ECCF4C
:100CB000982F9093E900242F762F50E0891731F078
:100CC0007091EC002091ED005091F00021FD07C0E3
:100CD0009F5F973071F78093E90081E0089530912C
:100CE000EB003E7F3093EB003091ED003D7F309381
:100CF000ED003091EB0031603093EB007093EC002D
:100D00002093ED005093F0002091EE0027FDE0CFFE
:100D100080E00895B0E0A0E0E0E9F6E00C943E3217
:100D2000C8EDD0E088818F7E8883E7EDF0E0808198
:100D30008160808384E082BF81E08093B7068881F0
:100D40008E7F888302EE10E0F80110821092DA00A4
:100D500081EEC82ED12CF601108288818F7788838E
:100D600088818068888388818F7D888319BC1092F0
:100D7000C4061092C5061092C3061092C20690EEE9
:100D8000E92EF12CF70180818B7F8083888181603F
:100D9000888342E060E080E00E945806F60180818E
:100DA0008E7F8083F801808181608083808188606C
:100DB0008083F70180818E7F808388818061888332
:100DC000CDB7DEB7E8E00C945A32FC018091CC0636
:100DD0009091CD0686179707A0F06115710529F44B
:100DE0009091E8009E779093E80090E0611571057E
:100DF00051F4911108C08091E80082FF34C080E076
:100E00000895BC01F2CF8091C4068823C1F18530DA
:100E1000C1F18091E80083FD30C08091E80082FD3F
:100E2000EACF8091E80080FFE1CF8091F30020912C
:100E3000F200382F6115710519F02830310558F08E
:100E400091E02830310509F090E02091E8002E77FC
:100E50002093E800CBCF81918093F100615071091C
:100E60002F5F3F4FE7CF8091C406882341F0853044
:100E700041F08091E80083FFBECF81E0089582E0D9
:100E8000089583E0089508958091B906089587E74D
:100E900097E7909301088093000888E19AE00FB6E5
:100EA000F894A895809360000FBE90936000FFCFE8
:100EB0002FB7F8946091B3067091B4068091B5068F
:100EC0009091B6062FBF08959C01FC0132969FEFCA
:100ED00080E04191461751F09F3F19F4411101C044
:100EE000982F8F5F8630A9F79F3F09F40895290F47
:100EF000311D97FD3A95F90162830895A3E0B0E0B2
:100F0000E4E8F7E00C9444322091B0063091B10649
:100F100028173907A1F09093B1068093B006E091AD
:100F2000AE06F091AF06309751F024E029839B8301
:100F30008A830680F781E02DCE01019609952396DC
:100F4000E2E00C946032A3E0B0E0E9EAF7E00C9450
:100F500044322091AC063091AD0628173907A1F034
:100F60009093AD068093AC06E091AE06F091AF068B
:100F7000309751F023E029839B838A830680F78191
:100F8000E02DCE01019609952396E2E00C946032A3
:100F9000FC01680F791F8FEF91E32191822728E0F0
:100FA00030E087FF09C0880F892721503109C9F730
:100FB000E617F70791F70895880FF7CFFA01811127
:100FC00001C0FB0109950895E7EEF3E0248130E1CB
:100FD000231B08F420E024838091E6038160809342
:100FE000E6030895E7EEF3E0248130E1230F08F4EF
:100FF0002FEF24838091E60381608093E6030895B8
:101000009091E703937071F08093E8036093E90394
:10101000453608F044E64093EA038091E603822BCC
:101020008093E6030895E7EEF3E0438120E1421B5D
:1010300008F440E0818121E0628190E00E94000894
:101040000895E7EEF3E0438120E1420F08F44FEF0B
:10105000818121E0628190E00E9400080895E7EE1E
:10106000F3E0628120E1621B08F460E0818121E00D
:10107000438190E00E9400080895E7EEF3E062816A
:1010800020E1620F08F46FEF818121E0438190E05D
:101090000E9400080895E7EEF3E0818121E043819A
:1010A00062818850990B0E9400080895E7EEF3E0F2
:1010B000818190E021E04381628108960E940008CE
:1010C00008959091E703937061F081110BC09460D3
:1010D0009093E703109252018091E603862B809350
:1010E000E6030895873010F09861F2CF880F880FDB
:1010F000982BEECF8091E70386958695815009F471
:1011000086E061E00E94610808958091E70386957A
:1011100086958F5F873008F081E061E00E9461086A
:10112000089580934E018091E703837080934D0171
:101130000E94B10D83E08093520108950E94410EF8
:101140000895FF920F931F93CF93DF93182F062FCD
:10115000F42ED0E0C0E02F2D402F612FCE010E9451
:101160009E082196CA33D105B1F7CDB7DEB7E5E0C9
:101170000C945D320F931F93522F10E0F801EE0F85
:10118000FF1FE354FE4FA5ADA052BB0B9D015203C0
:10119000F001539FF00D1124000F111FD801A7502B
:1011A000BE4F0C910057110B40039001419F300D31
:1011B00011242E0F3F1F37FF02C021583F4F220F2F
:1011C000232F221F330B620F1F910F9108950F934E
:1011D00047FD4195E8E3F0E0E41BF10947FDF39595
:1011E000EE9FA001EF9F500D500D1124229FF001A2
:1011F000239FF00DF00D11249A012E0F3F1FE22FB7
:101200002230310520F1213E9EE1390730F5A90158
:10121000E5E056954795EA95E1F798E0940FF1E0FF
:10122000AF2FA90FBB27BB1FAD0155954795E42FE5
:10123000449FD001459FB00DB00D11242A173B07E4
:1012400070F49FEF940F9F1758F7EFEFEF0F6E2F8B
:10125000660F6E0F600F0F9108959FEFE0CF4F3F25
:10126000B1F3F1E0F40FEFCF322F50E0FA01EE0FBF
:10127000FF1FE354FE4F95AD905297FD9195440F9B
:10128000551FFA01E750FE4F2081231B330B290F16
:10129000311D97FD3A95620F0895E82F86FDE09580
:1012A0002E2F2F7086FD2F5FE695E695E695E6706A
:1012B000F0E0EB54FE4F9181929F902D212D11244F
:1012C00092959F702295207F922B2081920F87FD0F
:1012D000919580E8890F089530E020E0869F212DC8
:1012E000969F200D311D1124C9010895AF92BF9220
:1012F000CF92DF92FF920F931F93CF93DF93362FFE
:10130000472FE82FF0E0EF54FD4F71110FC0E4912B
:101310008E2F2E2F6E2F722FDF91CF911F910F9155
:10132000FF90DF90CF90BF90AF900895C72FD0E08F
:101330002491F22E022F10E056E0659FC001112487
:10134000EFEFF0E0BF010E942032832F90E0880F82
:10135000991F35E5369FD001379FB00D11248A1BA8
:101360009B0B982F990F980F6F01CC1ADD0AC09E26
:10137000D001C19EB00DD09EB00D11248B2F499F7E
:10138000A0011124452F55276F01C41AD50AC09E0C
:10139000A001C19E500DD09E500D11245F01A91ACD
:1013A000B108AC9E6001AD9ED00CBC9ED00C112447
:1013B000CD2CDD24EC19FD09E09FE001E19FD00D6B
:1013C000F09FD00D1124ED2F62307105A1F050F483
:1013D0006115710509F49ECF6130710581F0EB2F25
:1013E000852F98CF6430710569F080F06630710503
:1013F00009F490CFF4CFE22F2B2F8D2F8BCFE22F3C
:10140000252F88CFEB2F822F2D2F84CF2B2F8F2DA1
:10141000E52F80CF80E00895F894E82FE295EF70F3
:10142000F0E031A1282F2F7081E090E001C0880FFB
:101430002A95EAF7982F9095932391A392A1892B4F
:1014400082A37894089590918A0392FF06C0282F72
:1014500028712830F9F4877F846093FF06C0282F15
:1014600028712831F1F4877E846120918B0320FF5D
:1014700006C0382F38713830D9F4877F816021FF5A
:1014800006C0282F28712831D1F4877E816194FD10
:10149000877E0895282F24712430F9F68B7F886089
:1014A000DCCF282F2471243101F78B7E8861DDCFBA
:1014B000382F3171313019F78E7F8860E0CF282FB7
:1014C0002171213121F78E7E8861E1CFCF93DF93A7
:1014D000EC0182389105B9F108F041C081339105E2
:1014E00009F49FC050F58932910509F48FC08A979D
:1014F00009F49EC0C11520E5D20708F0BDC0C11592
:1015000030E4D30708F00AC1C03ED10508F0A5C0F9
:10151000CD3CD10508F000C1C83AD10508F08FC014
:10152000C53AD10508F0F0C0C130D10539F1209796
:1015300029F1C430D10510F546C08533910509F471
:1015400060C0C997B9F680918A03837009F044C1DD
:1015500080918B0383FF12C0C9E2D0E00FC0833EAD
:101560009105A1F178F4803E910509F1823E910543
:1015700009F0C0CF80918A0382FD21C0CE01DF91A6
:10158000CF910895863E910561F1873E910571F1F5
:10159000843E910509F0AECF80918B0381FFEECFA1
:1015A00080918A03C7EED0E084FD0DC0E7CF809123
:1015B0008A0380FD33C090918B0390FFDFCFC3EE91
:1015C000D0E084FFDBCFD0E0C0E0D8CF80918A03A9
:1015D00082FDFFC090918B0390FDFEC084FFCECFB3
:1015E000F2CF80918A0383FDDDCFC8CF80918A033B
:1015F00083FDF5C090918B0391FFF0CFC4EED0E056
:10160000BDCF80918A0385FFB9CFA6CF80918A0391
:1016100085FDE8C080918B0383FFB0CFC9E3D0E0A4
:10162000ADCF80918A0386FFA9CFCAE2D0E0A6CFD2
:1016300080918A0386FFA2CFC1E3D0E09FCFC13C57
:10164000D10508F6C85AD0E0CC0FDD1FC25ADE4FD4
:101650000990D881C02DD46491CFC11540E2D40740
:1016600008F0AAC0C11581E0D80708F087CFC83EAE
:10167000D10508F483CFA7CFC03622E5D20718F5ED
:10168000C03432E5D30708F053C0C03242E5D40776
:1016900008F047C0C11582E5D80708F47FC02C2F99
:1016A0002695269540E2249F900111248C2F83706B
:1016B000C1E0D0E002C0CC0FDD1F8A95E2F7C22B5B
:1016C000D32BDD685BCFC03A22E5D20760F4C03887
:1016D00032E5D30708F441C0CF71D0E0DC2FCC272E
:1016E000C46FD06A4BCFC03C42E5D40708F44AC06F
:1016F000C03E82E5D80708F066CFDC2FCC27CC2788
:10170000DF71C06FD06A3ACFC55AD0E0C55ADE4FFC
:10171000C881D0E0D06432CFD06530CFDF70D06ADE
:101720002DCFCF71D0E0DC2FCC27C16FD06A26CF70
:101730002C2F26952695277080E2289F9001112452
:101740008C2F8370C1E0D0E002C0CC0FDD1F8A95E2
:10175000E2F7C22BD32BDC6811CF2C2F26952695D0
:10176000277040E2249F900111248C2F8370C1E0E8
:10177000D0E002C0CC0FDD1F8A95E2F7C22BD32B3D
:10178000DA68FCCE8C2F8F710E94230AC82FD0E01C
:10179000DC2FCC27CC27DF71D062F0CE8C2F8F715D
:1017A0000E94230A35E0D695C7953A95E1F7CF70A8
:1017B0009C2FEC01D069E2CE8D2F8F710E94230AFD
:1017C00090E0982F882788279F719C012C2BE90196
:1017D000E3CFC2EED0E0D2CEC0EED0E0CFCEC6EEA8
:1017E000D0E0CCCEC5E3D0E0C9CE0E945807089522
:1017F0008091240381111092240308958095909183
:1018000023039823909323030895809118039091C4
:10181000E702981301C008958F5F8770FACFA82F51
:10182000A77023E0969587952A95E1F7FC01EE0FC6
:10183000FF1FE80FF91FE60FF71F50E040E080E0C0
:10184000219130E00A2E02C0369527950A94E2F7DE
:1018500021703327042E01C0220F0A94EAF7822B4D
:101860004F5F5F4F4330510559F70895292F9A3044
:1018700068F4863090F490E069EC72E036E0239FE3
:10188000800D911D11240E940F0C08952C5F2230B1
:1018900020F466EC72E090E0F6CF80E00895262F09
:1018A000277091E001C0990F2A95EAF723E0769519
:1018B00067952A95E1F7FB01EE0FFF1FE60FF71F73
:1018C000E40FF51F50E040E0682F70E08191DF01E8
:1018D00011979B01042E02C0369527950A94E2F7D2
:1018E000217021952827292328272C934F5F5F4FAC
:1018F0004330510559F70895282F862F9A3070F4F8
:10190000263058F4622F70E026E0929F600D711D22
:10191000112449EC52E00E944F0C08959C5F9230D4
:10192000E0F7622F70E046EC52E0F5CF8093D106ED
:1019300008958091D106982F9670963021F4886092
:101940000E94960C0895877FFBCF21E030E001C014
:10195000220F8A95EAF720958091D10682230E9472
:10196000960C08959091190380958923809319030B
:10197000282F277091F4282F082E000C330B921774
:10198000130659F090918B0392FF07C085958595BA
:1019900085950E94A50C10921903089521E030E06E
:1019A00001C0220F8A95EAF78091D106822B0E940E
:1019B000960C0895809325030895982F92959F7013
:1019C00011F0892F94E0282F2695269511F09E5F1F
:1019D000822F869509F09F5F892F0895B0E0A0E0DF
:1019E000E4EFFCE00C943E326C017B0164E670E0B5
:1019F00088E70E947E2FEC0197FD12C010E000E006
:101A0000F601E00FF11F849164E670E00E94EA2F76
:101A1000EC01892B29F40F5F1F4F0E151F0581F76D
:101A20000E946030CE01CDB7DEB7E8E00C945A32A8
:101A30008091AA069091AB06911103C091E089278D
:101A40000895882369F062E070E083EF98E00E94D7
:101A5000EE0C892B19F08091AA0608951092AA061F
:101A60008091AA06EBCFCF93C091AA068091AB06D6
:101A70008823D1F00E945807605A75418F4F9F4FBD
:101A80006093A6067093A7068093A8069093A90674
:101A9000C11108C062E070E081EF98E00E94EE0C96
:101AA000892B29F0C091AA068C2FCF91089581E04F
:101AB0008093AA06F7CF0F931F93CF93DF938B01E9
:101AC000EA019091C406943061F58093E9008FEFAC
:101AD0009091E800815095FD06C095ED9A95F1F73B
:101AE00000008111F5CF8091E80085FF1AC00E94A7
:101AF0000806811111C08091E80085FD06C0809123
:101B0000E8008E778093E800F2CFF80181918F0191
:101B10008093F100219779F78091E8008E77809388
:101B2000E800DF91CF911F910F91089543E050E0BD
:101B3000BC0184E00E945B0D0895CF93DF93EC011C
:101B400048E050E0BC0181E00E945B0D88E0FE01AE
:101B5000AAEBB6E001900D928A95E1F7DF91CF9163
:101B60000895539A3BB1377F2BB128604FB7F89453
:101B70008DEE93E0FC015191CF0168E02BB900009C
:101B800000C057FF3BB9550F000000C000C000C0A7
:101B90003BB900C06A9591F7F4E08B399F0751F784
:101BA0004FBF8FE594E00197F1F700C00000089562
:101BB000B0E0A0E0EEEDFDE00C943C327C015B0176
:101BC0006A018091620301E010E08A3010F40AE0BB
:101BD00010E0C1E0D0E0B501C701F601099581111F
:101BE00004C021960C171D072CF4CDB7DEB7EAE030
:101BF0000C945832CC9F9001CD9F300D300D1124A4
:101C000090E080E045E34A95F1F7000001968217E5
:101C10009307C1F7E0CF80913003811119C088ECA0
:101C200090E02091E30027FD10C0EFE3FCE931973D
:101C3000F1F700C000000197A1F782E08093300324
:101C40000E94E9051092C40603C081E0809330032E
:101C500081E090913003913011F080E00895089573
:101C60000E940B0E882359F0E091AE06F091AF066A
:101C7000309729F00190F081E02D0995089580E0DA
:101C80000895FF920F931F93CF93DF93EC01F62EED
:101C9000042F122F0E940B0E81110FC0CD31D105E0
:101CA0007CF06D97FE01EE0FFF1FEC0FFD1FE3515F
:101CB000FC4FF1820083128303C0CD31D10594F330
:101CC000CDB7DEB7E5E00C945D32CF93C82F0E940C
:101CD0000B0E882329F081E0CD3128F080E003C08D
:101CE00081E0CA33D8F7CF910895A3E0B0E0EBE7E5
:101CF000FEE00C943532782E80914E01871124C07D
:101D00009091E703937020914D0130E081E09217AC
:101D1000130609F480E08170809351018091EC03F7
:101D200090915001981739F08093500140E060E0A5
:101D300080E00E94A10826E0271588F0E72DF0E05A
:101D4000E35DFC4C0C94AD3281E0E5CF8091510114
:101D50008823C9F140E060E080E00E94A10880E0B3
:101D600032C030914F018CE0389F802D112489833F
:101D7000182F145F1B3308F01AE30E940B0E882300
:101D800019F01E3108F01DE10E940B0E811105C0F3
:101D900089818D3110F49DE199836091E803709100
:101DA000E9038091EA030E947609062FF72EE82EB8
:101DB000F981EF2FF0E0FB83EA833A813117D0F00D
:101DC000812F0E94650E90914F019F5F90934F016C
:101DD00081110CC082E080935201809151018111E8
:101DE00005C0711003C083E0809352012396E1E1A6
:101DF0000C945132EA81FB81E359FD4F808190912F
:101E00005001892339F02E2D402F6F2D8A819B811F
:101E10000E949E082A813B812F5F3F4F3B832A838C
:101E2000CCCF80914F0189838CE09981989F802D40
:101E300011248983182F145F1B3308F01AE30E94C2
:101E40000B0E882319F01E3108F01DE10E940B0EC5
:101E5000811105C0E981ED3110F4FDE1F9830091B4
:101E6000E8032091E9032A83F090EA036091EB03F1
:101E70006695669566958091E1039091E2030E94D4
:101E80006C090E944D09805887FD8195880F382F75
:101E90002F2D329F312D1124832F602F7A810E94A4
:101EA0007609062FF72EE82E9981892F90E09B83E3
:101EB0008A83FA81F11708F083CFEA81FB81E35925
:101EC000FD4F808190915001892339F02E2D402FB4
:101ED0006F2D8A819B810E949E08EA81FB81319649
:101EE000FB83EA83E6CF20914F018CE0289F802D71
:101EF00011248983182F145F1B3308F01AE30E9402
:101F00000B0E882319F01E3108F01DE10E940B0E04
:101F1000811105C039813D3110F48DE189836091D3
:101F2000EB036695669521E0620F08F46FEF8091F0
:101F3000E1039091E2030E946C09082FF981EF2FD1
:101F4000F0E0FB83EA833A81311708F039CFEA8168
:101F5000FB81E359FD4F808190915001892399F0D5
:101F60006091E8037091E9038091EA03202F4A8190
:101F70000E9434090E947609462F282F672F8A81F4
:101F80009B810E949E082A813B812F5F3F4F3B83AC
:101F90002A83D9CF80914F0189838CE09981989FC2
:101FA000802D11248983182F145F1B3308F01AE346
:101FB0000E940B0E882319F01E3108F01DE10E94CB
:101FC0000B0E811105C0E981ED3110F4FDE1F983BB
:101FD0006091EB0366958091E1039091E2030E948A
:101FE0006C09D82E3981232F30E03B832A83C90125
:101FF000880F991FFC01E354FE4F7F013A8131178E
:1020000008F0DECEEA81FB81E359FD4F808190919B
:1020100050018923C9F0F70125AD2052330B44AD9F
:102020004057550B6091E8037091E9038091EA03F2
:102030000D2D0E94E7080E947609462F282F672F52
:102040008A819B810E949E08F2E0EF0EF11C2A819A
:102050003B812F5F3F4F3B832A83D0CF80914F013D
:1020600089838CE09981989F802D11248983182F72
:10207000145F1B3308F01AE30E940B0E882319F03B
:102080001E3108F01DE10E940B0E811105C0E9818F
:10209000ED3110F4FDE1F9836091EB0366956695EF
:1020A0008091E1039091E2030E946C09F82E80E494
:1020B0008F0D0E944D0930E8D32ED80E8F2D0E942F
:1020C0004D0940E8C42EC80E3981232F30E03B83F0
:1020D0002A839A81911708F073CEEA81FB81E35934
:1020E000FD4F8081909150018923A9F06091E80310
:1020F0007091E9038091EA03EF2C0A812C2D4D2D7C
:102100000E94BA080E947609462F282F672F8A81DD
:102110009B810E949E088A819B8101969B838A8372
:10212000D8CF80915101882329F040E060E080E021
:102130000E94A10890914F018CE0682E989F600C3E
:102140001124EAE3E61510F42AE3622E0E940B0E36
:10215000882329F0FDE1F61510F49DE1692E0E9417
:102160000B0E4091E1035091E2036091E303709103
:10217000E4038091D9039091DA03A091DB03B0913D
:10218000DC0384179507A607B70708F09DC0609188
:10219000E8037091E9038091EA030E947609562EC4
:1021A000472E382E0BEB13E02DEB31E03B832A83D7
:1021B00085E0882E88E0982ECA80DB805601780161
:1021C00092E0998302C031E03983F50181915F018A
:1021D00090E0F7012081222309F478C0232D452DBA
:1021E000642D0E949E08F6018581232D452D642DC6
:1021F00090E00E949E08F701818181937F01F1E0C8
:10220000CF1AD10829812130F1F6EA81FB81828140
:1022100090E0F8012281222309F463C0232D452D8B
:10222000642D0E949E08EA81FB818381232D452D28
:10223000642D90E00E949E0820914B0130914C014A
:10224000289DC001299D900D389D900D1124875E19
:10225000994C90934C0180934B01890F837091E0CE
:1022600009F090E0F80192830D5F1F4F2A813B81B6
:102270002A5F3F4F3B832A83295F314009F09CCF7F
:102280002091EB0330E1230F08F42FEF60E1822F60
:1022900090E00E946C09BC0188EB9BE00E94203218
:1022A0008091E1039091E203A091E303B091E403F4
:1022B000860F971FA11DB11D8093D9039093DA0358
:1022C000A093DB03B093DC03862D7BCD20E040E0C0
:1022D00060E00E949E08F601858120E040E060E019
:1022E00087CF20E040E060E00E949E08EA81FB8109
:1022F000838120E040E060E09CCF0F931F930E9419
:102300000B0E882329F00E9458071F910F91089502
:102310000E945807009163031091640320916503A4
:1023200030916603600F711F821F931FEECFCF9312
:10233000DF93C6E2D2E060E0CE010E94073321962F
:10234000C11584E0D807B9F7DF91CF9108950F93B5
:102350001F93CF93DF93142F022F843020F5623028
:1023600010F598E0899FE001112484E0689FB00196
:102370001124C60FD71FCA5FDD4F82E090E04423CF
:1023800011F090E080E0632F8C0F9D1F0E940733B7
:1023900083E090E0112311F081E090E0602F8C0F3A
:1023A0009D1F0E940733DF91CF911F910F910895D8
:1023B0001F93CF93DF93122F8430E0F46A30D0F470
:1023C0004630C0F4C42FD0E0CC0FDD1F9CE0699FE5
:1023D000C00DD11D112498E7899FC00DD11D112476
:1023E000632FCE0186960E940733612FCE01879618
:1023F0000E940733DF91CF911F910895B0E0A0E0D4
:10240000E4E0F2E10C943A3285EDE82E8AE0F82E11
:1024100005EF18E0C0E05801D0E015C0F4012591A7
:1024200034914D2D6D2F8C2F0E94D81182E0880E93
:10243000911CD39486E0D812F1CF8CE0A80EB11C89
:10244000DF5FDA3019F04501D12CE8CF6701D0E029
:10245000F6012591349141E06D2F8C2F0E94A71138
:10246000F60132962591349140E06D2F8C2F0E9419
:10247000A71184E0C80ED11CD13071F488E0E80EB9
:10248000F11CCF5F08581F4FC43009F0C4CFCDB73F
:10249000DEB7ECE00C945632D1E0DACFCF93C82F00
:1024A0006FEF811163E282E290E00E9407336FEFE9
:1024B000C11163E083E290E00E9407336FEFC11126
:1024C00068E084E290E00E940733CF91089580E0B5
:1024D0000E944E1260E085E290E00E9407330E9465
:1024E000FE110E94971181E00E944E120895FF9202
:1024F0000F931F93CF93DF93F42E843070F56230E7
:1025000060F528E0829F8001112434E0639FB001D0
:102510001124060F171F0A5F1D4F82E090E044232D
:1025200011F090E080E0800F911F0E94E932C82FE7
:10253000D0E0DC2FCC2783E090E0FF2011F081E099
:1025400090E0800F911F0E94E9329E01282BC90163
:10255000CDB7DEB7E5E00C945D3290E080E0F8CFD7
:102560000F931F93CF93DF93843030F56A3020F5BB
:10257000463010F5C42FD0E0CC0FDD1F2CE0629F59
:10258000C00DD11D112438E7839FC00DD11D11242A
:10259000CE0186960E94E932082F10E0102F002706
:1025A000CE0187960E94E9329801282BC901DF915C
:1025B000CF911F910F91089590E080E0F8CF7A308D
:1025C00048F4663070F4843060F4462F672F0E9420
:1025D000B01208957D3F41F4623018F441E0843038
:1025E00050F090E080E008957C3FD9F76230C8F762
:1025F0008430B8F740E00E9477120895CF92DF92BE
:10260000FF920F931F93CF93DF936C010091D1063C
:1026100080912503082BC7E0D0E010E0FC2EC80114
:102620000C2E02C0959587950A94E2F780FD0CC0A8
:102630002197A0F7F12C8F2DDF91CF911F910F9152
:10264000FF90DF90CF900895B6018C2F0E94DF128B
:102650000E94660A019761F3EECFCF93DF93EC01FE
:102660000E94FE12BE010E94DF120E94660ADF91E4
:10267000CF910895FC0183819481892B29F0808179
:10268000918189238F3F51F480E00895843FE1F7E1
:1026900017C0883EA8F0813FB9F712C080819181B0
:1026A0000E942D1392959F70963099F358F4925F83
:1026B0009F70923048F7803F19F040F7883E20F72E
:1026C00081E008959A5FF4CF82E290E00E94E932BF
:1026D000833289F483E290E00E94E932833059F436
:1026E00084E290E00E94E93291E0883009F090E0C5
:1026F000892F8170089580E0FCCF80912303909111
:102700002203892B8093B80290912403992391F09E
:10271000892B8093B80220E08AEB92E0FC01319192
:10272000CF0131112F5FF2E0803C9F07B9F72111F3
:102730000E94F80B48E050E06AE173E088EB92E019
:102740000E94C332892BA9F088E0E8EBF2E0AAE10D
:10275000B3E001900D928A95E1F7E091AE06F09119
:10276000AF06309731F00280F381E02D88EB92E0E4
:1027700009950895882321F00E94FE0B0E947D1385
:102780000895882339F090912303982B9093230385
:102790000E947D130895882391F19CEF980F913A40
:1027A00080F4EAEBF2E020EC32E09191891303C06F
:1027B000DF0111971C922E173F07B9F70E947D1376
:1027C000089590E2980F983050F4877091E001C01E
:1027D000990F8A95EAF7892F0E94FE0BEFCF9BE5B0
:1027E000980F933028F490E080E00E94A3070895AA
:1027F000885A893120F490E080E00E947E07089595
:10280000CF93C82F8823B1F08CEF8C0F813A00F55D
:10281000EAEBF2E080EC92E0DF012D91C21761F06B
:102820008A179B07D1F76C2F88EB92E00E94640710
:102830000E947D13CF9108952191C21303C0DF013F
:1028400011971C928E179F07B9F70E947D13EBCF4B
:1028500080E28C0F883068F4C77021E030E001C05E
:10286000220FCA95EAF780912303822B80932303DA
:10287000DFCFEBE5EC0FE33040F4F0E0E55AFE4F3C
:10288000808190E00E94A307D5CFC85AC93190F645
:10289000EC2FF0E0EE0FFF1FE25AFE4F8081918196
:1028A0000E947E07C7CF1F93CF93DF93182FD0E0EE
:1028B000C0E0893311F4C0E5D0E0812F0E940014FC
:1028C000209739F4812F0E94CB13DF91CF911F9174
:1028D00008958FE99FE00197F1F700C0000021976C
:1028E000EFCF1F93CF93DF93162F8A3039F481E017
:1028F0000E949915DF91CF911F9108958D3011F4A9
:1029000080E0F6CFC091A406D091A50696E0FE0126
:10291000AEE9B6E001900D929A95E1F7803E90F114
:1029200086E0FE0111928A95E9F7C091A406D09144
:10293000A506111133C046E050E0BE018EE996E0D5
:102940000E94C3329E012E593440892B91F52A5F93
:102950003F4F40919B04642F70E0C9010E942032D8
:10296000481B463010F4240F311D211572E0370743
:1029700010F030E020E022563B4F3093A506209324
:10298000A406B8CFF6E08F9FB00111246F547C4F9E
:1029900046E050E0CE010E94BA32C7CF9E012A5FC6
:1029A0003F4FFE012E173F0731F2808180958193C2
:1029B000F9CFC90145E0969587954A95E1F741E041
:1029C00050E0BA0102C0660F771F8A95E2F7CB018B
:1029D00060919C0470919D04862B972BB9016B5FCD
:1029E0007F4FE5E076956795EA95E1F702C0440FE1
:1029F000551F6A95E2F7842B952B90939D04809345
:102A00009C04A5CF0F931F93CF93DF93EC01FC01A0
:102A100001900020E9F78F0101501109C017D1077B
:102A200028F0DF91CF911F910F91089560E0899177
:102A30000E947114F3CF1F93CF93DF93EC01162FF5
:102A4000FE018491811104C0DF91CF911F910895FF
:102A5000612F0E9471142196F3CF8F929F92AF92B3
:102A6000BF92CF92DF92EF92FF92C62E60E00E945B
:102A70001B1580910001C81205C08091C4028032EC
:102A800009F44AC0C092000180E28093C402D12CB4
:102A9000F12CE12C1092C302C701B6012AE030E00C
:102AA00040E050E00E948B32605D603331F0C11431
:102AB000D104E104F10409F460E26093C20260E22F
:102AC0008AE0C816D104E104F10490F08AE0882E6F
:102AD000912CA12CB12CC701B601A50194010E9433
:102AE0008B32CA01B901A50194010E948B32605D4D
:102AF0006093C10220E284E6C816D104E104F10427
:102B000048F0C701B60124E630E040E050E00E9402
:102B10008B32205D2093C00280EC92E00E9402156F
:102B2000FF90EF90DF90CF90BF90AF909F908F90ED
:102B30000895CF93382FE091A406F091A506EE59A1
:102B4000F44020919B04622F70E0CF010E9420325C
:102B5000281B822F332369F066E00E946B32C82F56
:102B6000C15010F4CF91089560E080E20E9471148A
:102B7000F7CF9F01280F311D2115324018F080E05A
:102B8000F0E0E0E08E0F9F2F911D82569B4F9093B7
:102B9000A5068093A406E6CF0E941B1581E00E9443
:102BA0009915089510922303EAEBF2E086E0DF0125
:102BB0001D928A95E9F790E080E00E94A30790E0DB
:102BC00080E00E947E07109222030E947D130895E8
:102BD000AAE2B0E0EEEEF5E10C94433286EC96E02A
:102BE0002091F100DC012D93CD01B6E08E3C9B07D6
:102BF000B9F78091C706833009F472C0B8F4813008
:102C000009F449C0823009F4B3C08091E80083FF21
:102C10008BC28091C6069091C7069A3008F084C294
:102C2000E92FF0E0EC5CFC4C0C94AD328A3009F4F6
:102C30008EC08B3009F471C0893039F78091C60697
:102C4000813219F78091CA069091CB06009711F056
:102C50000297D9F68091E800877F8093E800809101
:102C6000E80082FF38C09091F3008091F200029753
:102C700031F48091F100813011F0863021F480919F
:102C8000F1008093B9068091E8008B778093E8008B
:102C90000E943906BACF8091C606813A09F0B5CFB5
:102CA0008091E800877F8093E8008091CA06909128
:102CB000CB06892B61F468E08AEB96E070E00E9415
:102CC000E5068091E8008B778093E8009ECF60E076
:102CD00090E080E0F3CF8091C4068111C0CF95CF02
:102CE0008091C606813A09F090CF8091CA069091F2
:102CF000CB06892B09F089CF8091E800877F8093EC
:102D0000E8008091E80080FFFCCF80915301809320
:102D1000F1008091E8008E77B9CF8091C6068132AC
:102D200009F073CF8091CA069091CB06892B09F0E8
:102D30006CCF8091E800877F8093E8000E9439067D
:102D40008091C806809353010E94D2155ECF809176
:102D5000C606813209F059CF8091E800877F8093C1
:102D6000E8000E9439068091C9068093B8064DCFCD
:102D70008091C606813A09F048CF8091E800877FAC
:102D80008093E8008091E80080FFFCCF8091B80636
:102D9000BECF803899F0823809F0C6C18091CA064A
:102DA0008F70873008F0C0C18093E9008091EB00FC
:102DB00085FB882780F91092E90006C08091C20641
:102DC0009091C306911182609091E800977F909353
:102DD000E8008093F1001092F1008091E8008E7776
:102DE0009FC1882309F48DC1823009F09DC1809173
:102DF000C806811190C18091CA068F702FEF280FED
:102E0000263008F091C18093E9002091EB0020FF6B
:102E100082C1933031F48091EB0080628093EB00AB
:102E20007AC19091EB0090619093EB0021E030E04B
:102E300001C0220F8A95EAF72093EA001092EA0077
:102E40008091EB008860EACF81116EC11091C806B5
:102E50001F778091E3008078812B8093E30080913D
:102E6000E800877F8093E8000E9439068091E8009F
:102E700080FFFCCF8091E30080688093E30082E0D4
:102E8000111183E08093C4064FC18058823008F04E
:102E90004BC12091C8063091C9062C3DE3E03E07A6
:102EA000A1F583E08A838AE289834FB7F894DE0133
:102EB000139620E03EE051E2E32FF0E050935700FC
:102EC000E49120FF03C0E295EF703F5FEF708E2F1B
:102ED00090E0EA30C0F0C7968D939D932F5F243128
:102EE00059F74FBF8091E800877F8093E8006AE23E
:102EF00070E0CE0101960E94E5068091E8008B7794
:102F00008093E80011C1C096E7CF8091CA069091E6
:102F1000CB06432F55274330510509F44AC078F5B5
:102F20004130510509F47AC08BE590E0E5EFFAE015
:102F30004230510509F0F8C02091E800277F209326
:102F4000E8002091CC063091CD068217930708F453
:102F50009C0140E02115310509F065C0411163C0B5
:102F60008091E80082FDC9CF8091C406882329F2B0
:102F7000853019F28091E80083FFF2CFBECF413255
:102F8000510509F43CC04232510509F0CDC08330EF
:102F9000910508F0C9C0FC01EE0FFF1FE655FD4F7B
:102FA0000190F081E02D89559D4FDC018C9190E0DE
:102FB0001AC0332721303105D1F02115310561F0D8
:102FC0002230310509F0B0C0E2E6FBE0E4918E2F3B
:102FD00090E0E2E6FBE007C0E0E9FBE0E4918E2F41
:102FE00090E0E0E9FBE0009709F49EC0A5CFEAE796
:102FF000FBE0E4918E2F90E0EAE7FBE0F4CF833032
:10300000910508F091C0880F991FFC01E055FD4F14
:103010000190F081E02D89E090E08ECF82E190E098
:10302000E0E5FBE089CF8091C406882309F465CFF1
:10303000853009F462CF8091E80083FD5ECF8091F6
:10304000E80082FD8DCF8091E80080FF83CF9091D2
:10305000F3008091F2002115310519F088309105B7
:1030600050F041E0089709F040E08091E8008E7749
:103070008093E8006FCF44914093F1003196215046
:1030800031090196E8CF803809F04EC08091E80000
:10309000877F8093E8008091C5068093F1009DCEE4
:1030A000811142C01091C8061230F0F58091E800FD
:1030B000877F8093E8001093C5060E94390611238C
:1030C00011F084E005C08091E30087FDFACF81E034
:1030D0008093C40642E061EC81E00E94580642E21F
:1030E00061EC84E00E94580642E261EC82E00E94BA
:1030F000580642E260EC83E00E9458068091C406C4
:1031000013C08091C806813079F481E0933009F0D2
:1031100080E08093C3061092E9008091E800877FE9
:103120008093E8000E9439068091E80083FF0AC07E
:103130008091E800877F8093E8008091EB008062B7
:103140008093EB00AA96E3E00C945F320E94D215C4
:103150002FEF84E39CE0215080409040E1F700C0D5
:10316000000088E19AE00FB6F894A895809360007B
:103170000FBE90936000FFCF46E050E06CE170E03E
:1031800087EE93E00E94F7321092E6030895CF9203
:10319000DF92EF92FF920E947D116093DD037093A6
:1031A000DE038093DF039093E0032091E50330E09A
:1031B000211108C02091E703322F337019F0322F0C
:1031C00036953695209152012130C9F0222349F0DD
:1031D0002230C9F02330D9F0FF90EF90DF90CF90EC
:1031E000089510924F016093E1037093E20380937E
:1031F000E3039093E40381E080935201EDCF832FAA
:103200000E94750EE9CF832F0E949108E5CF80912F
:10321000E60381110E94BC18C090E103D090E20344
:10322000E090E303F090E4030E940B0E8823C1F0CA
:103230002FB7F8946091B3067091B4068091B506EB
:103240009091B6062FBF6C197D098E099F096031D8
:1032500071058105910508F4BFCF10925201BCCFD2
:103260000E947D11F0CFE7EEF3E089E0808380914A
:10327000540190915501A091560181839283A383BB
:103280008FE784838FEF85830E94BC180895909107
:103290008B0392FB222720F9281779F080FB92F903
:1032A00090938B0360918A0370918B0384E090E08C
:1032B0000E94253382E00E94B20C089590E080E0E5
:1032C0000E94F132873E9E4F19F40E9464130895C4
:1032D00080E00895A4E0B0E0E0E7F9E10C94433227
:1032E00040915A0350915B0360915C0370915D03C0
:1032F0002FB7F8948091B3069091B406A091B506CB
:10330000B091B6062FBF841B950BA60BB70B11E02F
:1033100084369105A105B10570F10E947D116E5FA3
:103320007F4F8F4F9F4F69837A838B839C838091DC
:103330002A0190912B018E5B9C4F4091290150E016
:103340004530510510F044E050E0BE016F5F7F4F03
:103350000E94D03285E090E00E94AA31182F882385
:1033600051F00E94580760935A0370935B03809357
:103370005C0390935D03812F2496E3E00C945F320D
:103380004F925F926F927F928F929F92AF92BF9275
:10339000EF92FF920F931F93CF93DF937B01FB017B
:1033A00040805180628073809FB7F8948090B3060C
:1033B0009090B406A090B506B090B6069FBF841852
:1033C0009508A608B708F4E68F169104A104B10485
:1033D00018F4C1E0442329F1C82F880FDD0BFE014A
:1033E00083E0EE0FFF1F8A95E1F7EF5FFE4F8181CB
:1033F00092818E5B9C4F408150E00417150708F4C2
:10340000A801B9010E94D032CE010E94AA31C82F72
:10341000882339F00E945807F70160837183828303
:1034200093838C2FDF91CF911F910F91FF90EF909D
:10343000BF90AF909F908F907F906F905F904F90D4
:103440000895A7E0B0E0E7E2FAE10C94423286E0AA
:10345000E7EEF3E0DE01119601900D928A95E1F717
:103460008091E5038F8347E050E063E573E0CE0190
:1034700001960E94C33241E0892B09F440E007E045
:1034800010E09E012F5F3F4F6EE573E086E00E94E3
:10349000C0192796E4E00C945E320F931F93CF93EC
:1034A000DF93EC0145E050E068E473E00E94C33232
:1034B00041E0892B09F440E005E010E09E016AE359
:1034C00073E082E00E94C019DF91CF911F910F91AC
:1034D00008954F925F927F928F929F92AF92BF9288
:1034E000CF92DF92EF92FF920F931F93CF93DF93D0
:1034F0000F92CDB7DEB7C62E4A015901482E880F6C
:103500005508C2010E94AA31782E882309F480C090
:10351000C20133E0880F991F3A95E1F7FC01EF5F94
:10352000FE4F438150E04115510511F041E050E05C
:103530008F5F9E4FFC01648175816E5B7C4FCE0175
:1035400001960E94D032F4014081518162817381E1
:103550002FB7F8948091B3069091B406A091B50668
:10356000B091B6062FBF841B950BA60BB70B843604
:103570009105A105B10540F4B701C8010E94C80733
:103580009981891709F444C00C2C000CDD08C60190
:103590000E94AA31782E811113C0712C872D0F90B3
:1035A000DF91CF911F910F91FF90EF90DF90CF901F
:1035B000BF90AF909F908F907F905F904F900895B5
:1035C000C60123E0880F991F2A95E1F7FC01EF5F00
:1035D000FE4F438150E0E416F50608F4A7018F5F23
:1035E0009E4FFC01648175816E5B7C4FC5010E941A
:1035F000D032B701C8010E94C80799818913CDCF85
:103600000E945807F4016083718382839383C6CF3D
:10361000A701B801C5010E94D032C0CFA5E0B0E03B
:10362000E4E1FBE10C943E326B0185E0E82EF12CE5
:1036300003E413E09E012F5F3F4F46E353E061E058
:1036400080E00E94691A882349F095E0FE013196D6
:10365000A1E3B3E001900D929A95E1F795E0E1E3E3
:10366000F3E0D60101900D929A95E1F72596E8E0F6
:103670000C945A3267EE7EEF90E080E00E94253392
:1036800060E082E090E00E94073360E083E090E039
:103690000E9407331092250360E074E184E090E01B
:1036A0000E94253360E086E090E00E9407336FEFD0
:1036B00087E090E00E94073340E050E0BA0188E0E4
:1036C00090E00E94193360E08DE090E00E940733A3
:1036D00040E050E0BA0188E190E00E94193360E0D8
:1036E00087E190E00E94073340E050E0BA018CE1AE
:1036F00090E00E94193370E060E080E290E00E9468
:10370000253340E050E0BA0188E190E00E9419338F
:1037100080E00E944E120E94671240E050E0BA0121
:103720008FE090E00E94193340E050E0BA0183E15D
:1037300090E00E94193308951F920F920FB60F92D6
:1037400011242F933F934F935F936F937F938F93A6
:103750009F93AF93BF93CF93DF93EF93FF93D0915A
:10376000E900DF708091EC00C82FC17080FDC0E8D7
:103770001092E9008091F000877F8093F0007894A8
:103780000E94E8151092E9008091F0008860809313
:10379000F000CD2BCF70C093E900FF91EF91DF9146
:1037A000CF91BF91AF919F918F917F916F915F91D9
:1037B0004F913F912F910F900FBE0F901F90189532
:1037C0001F920F920FB60F9211242F933F934F9396
:1037D0005F936F937F938F939F93AF93BF93EF9379
:1037E000FF938091E10082FF09C08091E20082FF97
:1037F00005C08091E1008B7F8093E1008091DA0029
:1038000080FF24C08091D80080FF20C08091DA0022
:103810008E7F8093DA008091D90080FF9DC080E187
:1038200089BD82E189BD09B400FEFDCF81E08093AE
:10383000C4068091B706811109C00E94E9050E9463
:103840008A068091E20084608093E2008091E1002A
:1038500080FF17C08091E20080FF13C08091E200DA
:103860008E7F8093E2008091E20080618093E2008D
:103870008091D80080628093D80019BC85E0809345
:10388000C4068091E10084FF2BC08091E20084FF98
:1038900027C080E189BD82E189BD89B5982F9170EB
:1038A00080FFFBCF8091D8008F7D8093D8008091DE
:1038B000E1008F7E8093E1008091E2008F7E809313
:1038C000E2008091E20081608093E2008091C50671
:1038D000882309F447C084E08093C4068091C4061D
:1038E0008091E10083FF27C08091E20083FF23C025
:1038F0008091E100877F8093E10082E08093C4069D
:103900001092C5068091E1008E7F8093E100809146
:10391000E2008E7F8093E2008091E20080618093DC
:10392000E20042E060E080E00E9458068091F000F2
:1039300088608093F000FF91EF91BF91AF919F91CC
:103940008F917F916F915F914F913F912F910F9048
:103950000FBE0F901F90189519BC1092C4061092BC
:10396000B70674CF8091E30087FD93E09093C4067F
:10397000B5CF78941F921FB61F9211248F939F93F7
:10398000AF93BF938091B3069091B406A091B50612
:10399000B091B6060196A11DB11D8093B306909318
:1039A000B406A093B506B093B606BF91AF919F91B0
:1039B0008F911F901FBE1F9018959C014FB7F894D0
:1039C0008091B3069091B406A091B506B091B60669
:1039D0004FBF821B930B08952FB7F8948091B306C5
:1039E0009091B406A091B506B091B6062FBF089588
:1039F0000F931F93CF93DF93C62FD42F022FFC0179
:103A000082818823A9F06093D0060E94EC1C9093D9
:103A1000CF068093CE06C77081E001C0880FCA959B
:103A2000EAF70E94C113DF91CF911F910F91089582
:103A30008091D006681332C08091CE069091CF0657
:103A40000E94DD1C883C910548F510E21D0FCD1742
:103A5000B9F080E28C0F883040F4C77081E001C07B
:103A6000880FCA95EAF70E94BA13183048F481E02B
:103A70009D2F977001C0880F9A95EAF70E94C11395
:103A8000802F0E945314183070F6D77081E001C067
:103A9000880FDA95EAF70E94BA13C5CFC77081E0A4
:103AA00001C0880FCA95EAF7F6CFA8E0B0E0EBE5D1
:103AB000FDE10C9436328C01DC0113968D919C91C2
:103AC0001497892B39F08C9111969C9189238F3F03
:103AD00009F00BC62896E0E10C9452320E94FE12C7
:103AE000F82E682F89819A810E947C0C69817A81E5
:103AF0008F2D0E94DF127C01F801D280DD2009F4B5
:103B0000BBC582509747409708F0E3C58FEF93E01D
:103B10000E94E932811185C0EA94EA9466E2A62EF9
:103B200062E0B62EE11047C0FE01339686E0DF0169
:103B30001D928A95E9F75AE0452E7501BFEFEB1A01
:103B4000FB0AC5010E94E93289831A82882309F49D
:103B500068C0813009F078C06501E2E0CE0ED11C6A
:103B6000C7010E94E9328A83882309F45AC09FEF73
:103B7000980F933070F5F3E0AF0EB11CC6010E94B0
:103B8000E9328B83882309F44CC01C82DE01119634
:103B90007D01F7012081222381F2213009F094C0B8
:103BA00091818281913009F051C0F2E0EF0EF11C59
:103BB0000E94531452C0A114F4E0BF0691F1C50154
:103BC0000E94E932811101C0EA942FEFA21AB20AD1
:103BD000A9CF56018430D1F642E0E42EF12C5601F3
:103BE0002FEFA21AB20AC6010E94E932E1E0F0E02A
:103BF000EC0FFD1FEE0DFF1D8083882391F08C37A5
:103C000041F4E2E0F0E0EC0FFD1FEE0DFF1D10822D
:103C1000BDCF3FEFE31AF30A650187E0E816F10430
:103C2000F1F680911903877009F454CFD8011296E8
:103C30008C91882309F44ECF80918B0382FF4ACF69
:103C400082E00E94B20C46CF5701A0CF923049F4D7
:103C500022E0E20EF11C0E940014EFEFEE1AFE0AC1
:103C600098CF933031F432E0E30EF11C0E94CB1375
:103C7000F4CF943021F08FEFE81AF80AEECF92E0FB
:103C8000E90EF11C30E020E0B7016F5F7F4FD701F4
:103C900011964C918053990B8A30910550F0215028
:103CA0003109D8F2EFE9FFE03197F1F700C00000E9
:103CB000F6CF429EF001439EF00D11249C012E0F81
:103CC0003F1F842F7B01E0CFE22FF0E0E059FE4F51
:103CD0005490822F86958695869590E0FC01E05A57
:103CE000FE4F64902770712C022E02C07594679469
:103CF0000A94E2F731E063227724FC01E05BFE4F97
:103D00008490912C022E02C0959487940A94E2F735
:103D1000A1E08A229924FC01E05CFE4FC490D12CE2
:103D200002C0D594C7942A95E2F7B1E0CB22DD24F6
:103D30006114710419F081EE0E9400148114910441
:103D400019F086EE0E940014852D0E9453148114F0
:103D5000910419F086EE0E94CB136114710419F0DE
:103D600081EE0E94CB13C114D10409F476CF8CE20A
:103D70001FCF81E00E94CE0C03C081E00E94A50C01
:103D80000E94990C4ECFBDE7EB16F10409F49CC0DC
:103D9000E114EEE7FE0609F091C481E0DD2071F345
:103DA000E9CFF4E0EF16FEE7FF0609F462C0D8F4AD
:103DB00032E0E3163EE7F30681F183E0E8168EE792
:103DC000F80609F07BC480918B038170DD2009F433
:103DD00045C0882309F440C084E00E94230A0E9461
:103DE000C1138FE427C095E0E9169EE7F90609F4B0
:103DF0004DC0A6E0EA16AEE7FA0609F05FC481E01E
:103E00000E94230ADD2009F44EC00E94C1138AE2F9
:103E100011C0D11068C482E0B1CF80918B03817052
:103E2000DD2069F0882349F084E00E94230A0E9483
:103E3000C11380E50E940014F4CE81E0F6CF882300
:103E400049F084E00E94230A0E94BA1380E50E9490
:103E5000CB13E7CE81E0F6CF81E0BFCF882339F0E6
:103E600084E00E94230A0E94BA138FE4F0CF81E01D
:103E7000F8CF80918B038170DD2021F08111DDCF9F
:103E80008AE4D8CF8111E6CF8AE4E1CF80918B0319
:103E90008170DD2021F08111DFCF8DE4CBCF811146
:103EA000E6CF8DE4D4CF0E94BA138AE2D0CF81E06E
:103EB0000E94230ADD2021F00E94C11386E0BACFC0
:103EC0000E94BA1386E0C3CF81E00E94230ADD205E
:103ED00021F00E94C11389E1ADCF0E94BA1389E19C
:103EE000B6CF81E00E94230ADD2021F00E94C11399
:103EF0008BE1A0CF0E94BA138BE1A9CF81E00E9491
:103F0000230ADD2021F00E94C1138DE193CF0E948E
:103F1000BA138DE19CCF26E241EE61EEC8010E940A
:103F2000F81C7FCE27E245EE65EEF8CF26E241EEA3
:103F300060EEF4CF27E245EE64EEF0CF26E241EEEC
:103F400062EEECCF27E245EE66EEE8CF28E241E0F4
:103F5000EBCFDD2009F4F3C31092D006C7019057D0
:103F6000839708F0D5C384E090E00E94F1329093EB
:103F70008B0380938A03F701E150F047E232F105A9
:103F800020F4E25CFC4C0C94AD3280918A03816099
:103F900080938A0395C080918B03886080938B0304
:103FA0008FC080918A038260F3CF80918A038460FE
:103FB000EFCF80918A038860EBCF80918B03816083
:103FC000EDCF80918B038260E9CF80918A0380617D
:103FD000DFCF80918A038062DBCF80918A03806487
:103FE000D7CF0E94D21580918A038068D1CF80916B
:103FF0008A038C60CDCF80918B038360CFCF80917B
:104000008A038E7FC5CF80918B03877FC7CF809136
:104010008A038D7FBDCF80918A038B7FB9CF80913A
:104020008A03877FB5CF80918B038E7FB7CF809136
:104030008B038D7FB3CF80918A038F7EA9CF809130
:104040008A038F7DA5CF80918A038F7BA1CF0E94A9
:10405000D21580918A038F779BCF80918A03837FCB
:1040600097CF80918B038C7F99CF80918A0382FBBD
:10407000992790F921E0922790FB82F990FB83F930
:1040800087CF80918B03982F909591708E7F892B8D
:1040900090FB81F983CF90918A03892F8F7B96FFC4
:1040A000806476CF0E94D21590918A03892F97FB66
:1040B00087F980586DCF61E08EE090E00E94073371
:1040C00060918A0370918B0384E090E00E94253315
:1040D0000E94D215A6CD60E0EFCF90918A03892F80
:1040E0008F7E94FF806154CF90918A03892F8E7FB9
:1040F00090FF81604DCF90918B03892F877F93FF35
:1041000088604CCF8091C50281110FC089E2EAEB33
:10411000F2E020EC32E09191891303C0DF011197A6
:104120001C922E173F07B9F707C385E3F0CF8091A4
:10413000E70391E089278093E70310925201809171
:10414000E60381608093E6036CCD4AE758E065E8BA
:1041500078E00E94DE0765CD45E858E06AE778E040
:10416000F8CF4BE458E066E578E0F3CF46E558E059
:104170006BE478E0EECF4FE258E06DE378E0E9CF12
:104180004DE358E06FE278E0E4CF43E158E061E2CC
:1041900078E0DFCF41E258E063E178E0DACF44EE47
:1041A00057E062EF77E0D5CF42EF57E064EE77E07B
:1041B000D0CF61E081E00E94610833CD61E082E010
:1041C000FACF0E94D215BFEFE4E3FCE0B150E0402B
:1041D000F040E1F700C000000E9447076FEF7FEF5B
:1041E00090E080E00E9425330E94A61880918B0306
:1041F00082FB882780F991E089270E944719F801FE
:104200008281E080F180882309F446C0C7010E94C2
:10421000FE12D82E682FC7010E947C0CB7018D2D8D
:104220000E94DF120E94660A7C01882ED801129635
:10423000AC90129715969C9092943FE093228091B7
:1042400019038770C1F0CA2CAA20B1F08F2D807F8E
:10425000803421F080E28E0D883068F080918B03ED
:1042600082FF09C082E00E94B20C8091190387701E
:10427000CC24C3948111C12CBF2CB2942FE0B22264
:10428000BBE0BB1508F477C0EB2DF0E0E05AFC4C26
:104290000C94AD3280E0B1CFC7010E94360CD82E0D
:1042A000BDCFEF2DEF70DE2E8F2D807F19F0D294D1
:1042B00090EFD922AA20B9F0DD2069F080E28E0DBE
:1042C000883010F0811009C080912303D82AD09241
:1042D00023030E947D138E2D4CC080912203D82A87
:1042E000D0922203F6CF8E2D0E94CB13DD2009F44D
:1042F00042C080E28E0D883010F0811004C08D2DF8
:104300000E94FE0B06C0D09480912203D822D09246
:1043100022030E947D132FC0FF2DFF70DF2E8F2DF3
:10432000807F803219F0D29480EFD822882089F0E3
:1043300021E0821609F46CC0AA2009F476C0992005
:1043400009F46CC0F801858180FFC5CF8F7085832B
:1043500065C020918B0322FD34C0AA2061F1DD20CD
:1043600039F080912303D82AD09223030E947D1331
:1043700080E00E940014AB2DA850BB0B149710F4E2
:104380000E94300ECC2009F4A5CB8091190380FD4A
:10439000A1CBF80112828595859585950E94CE0C5A
:1043A000C8010E94551D80911903859585958595B5
:1043B0000E94A50C8FCB80E00E94CB13DD20D9F2A8
:1043C0009ECFAA2099F090912403892F8D299110D6
:1043D00003C00E94C113CFCF31E09312FACF22FF66
:1043E000CACF981741F280932403C5CF911006C01D
:1043F0000E94F80B8D2D0E94BA13BDCF81E0981654
:1044000009F4B9CF8D2D0E94BA130E94F80BB3CFD7
:10441000AA2031F095E0991508F4ADCF8D2DD9CFB4
:10442000A4E0A91508F4A7CFE5CF992019F3F9E383
:104430008F1209C02FEF37EE83E0215030408040CB
:10444000E1F700C000008E2D0E94CB1394CF8F2D7A
:1044500086958695837061F0813009F08CCFC70115
:104460009370A11002C080E090E00E947E0783CF8D
:10447000C7019370A11002C080E090E00E94A307E2
:104480007ACF8F2D837091F5A11075CF4E2D429567
:1044900046954770440F440F8E2D8F70042E01C037
:1044A000880F0A94EAF72E2D2071E4FE07C02FE052
:1044B00030E001C0220F4A95EAF720953F2D36954E
:1044C00036953370323069F050F440912503313025
:1044D00029F0822B84230E94DA0C4DCF842B822B6F
:1044E000FACF282B809125038227F5CF8695AA2025
:1044F00011F08F2D8170882309F43DCF4E2D429508
:1045000046954770440F440F8E2D8F70042E01C0C6
:10451000880F0A94EAF72E2D2071E4FE07C02FE0E1
:1045200030E001C0220F4A95EAF720953F2D3695DD
:1045300036953370323069F050F44091D106313005
:1045400029F0822B84230E94960C15CF842B822B7A
:10455000FACF282B8091D1068227F5CF9F2D9F700F
:10456000F92EAA2029F0892F0E94CE0C8E2D31CF52
:104570008E2D0E94BA138F2D0E94A50CFCCE8E2D7D
:10458000A2EF8A16B1F1A81570F0B0EF8B16D1F03A
:10459000E1EF8E1691F0AA2009F45EC091109BCE37
:1045A0008F2D8F712AC0F3EF8F1651F124EF8212F5
:1045B000F2CF80918B0382FD2FC08F2D8F71AA20A7
:1045C000D9F21BC0AA2081F034E0391508F4D3CE0B
:1045D0002F2D2F7181E090E001C0880F2A95EAF716
:1045E0009091D1068927AFCF85E0891508F4C3CE15
:1045F000EFCF8F2D8F71A110BFCF0E94CE0CBBCEFD
:1046000080E0AA2009F49FCF9F2D9F7181E001C017
:10461000880F9A95EAF797CFAA2099F09F2D9F715E
:10462000F92E892F0E94CE0C80918B0382FF07C048
:10463000A8E0FA9EC00111248360809319038F2D96
:10464000DCCF81E00E94B20CB1E0B91508F093CE46
:1046500082E00E94B20C8FCE992059F0893309F084
:10466000F2CEEFEFF7EE23E0E150F0402040E1F72B
:10467000E8CE8F2D8F7180CF8115F7E79F0709F462
:104680007CCB8130974709F4C6CBF1E0EF16FEE70B
:10469000FF0609F4BECB08F084CB3CE7E316F10437
:1046A00009F405CC08F06FCB9AE7E916F10409F498
:1046B00025CCABE7EA16F10409F413CCF701E85175
:1046C000FC47E730F10508F044CCE459FC4C0C946D
:1046D000AD32E11437E7F30609F44BCB81E0E8167D
:1046E00087E7F80691F682E045CB85E0F801DE0128
:1046F000119601900D928A95E1F7D80112962C91AE
:1047000089819A812111EAC90E94360CF82EEEC9DE
:10471000B6E1EB16BCE7FB0631F5809123038A7AFC
:1047200091E009F490E09093C50269E2811165E39C
:1047300088EB92E00E9464070E947D1372CAE6E152
:10474000EE16ECE7FE0609F4DDCC809123038272BD
:10475000F701E052F847E531F10508F050CDED588A
:10476000FC4C0C94AD32F3E0EF16FCE7FF0609F4C5
:1047700035CD60F4E1143CE7F30609F422CD81E085
:10478000E8168CE7F80609F42FCD39CD9BE5E9163C
:104790009CE7F90609F47ECDACE5EA16ACE7FA062B
:1047A00009F424CDBAE5EB16BCE7FB0609F027CDEA
:1047B00081E023CD1F93CF93DF938091E602807F2A
:1047C00009F049C08091E302882309F444C0809134
:1047D0001803D091E7026091E1027091E202A0918A
:1047E000E402B091E502C62FC72316E0D81799F16D
:1047F00090E0109711F0CF3F19F401968770F6CF33
:10480000189F9001199F300D1124F901E851FD4FB7
:1048100041814713F2CF40814613EFCF42814111CE
:10482000ECCF438154814A1B5B0B483C510528F770
:104830008091E6028F7080618093E602F901E35176
:10484000FD4F80818F708061808381EE92E00E94B5
:10485000551D0E94050CDF91CF911F910895A1E194
:10486000B0E0E5E3F4E20C943C328C0185E0F80121
:10487000DE011D9601900D928A95E1F7F801E28024
:1048800081EEA82E82E0B82E6091E4027091E502DC
:104890006115710509F426C19091E1024091E2028F
:1048A000892F84238F3F09F41DC120813181C3806A
:1048B000D480F090E302F601E61BF70BFF2009F429
:1048C000DCC08091E602582F507FE83CF10508F0EB
:1048D0009FC051116BC0FE2C431314C0921312C021
:1048E000E11010C08F7080618093E602C5010E94C4
:1048F000551D8091E602F80185838F2D6196EAE0CF
:104900000C945832C114D10429F0822F83238F3F95
:1049100009F003C180E0F82FF170DF2E80FF3CC06A
:10492000809118034091E70256E0841315C02D874B
:104930003E878D859E850E942D13292F22952F70ED
:104940002230F0F0243018F59F70F1F0F8019581D5
:10495000907FD1F4D12C1EC090E0589FF001599F58
:10496000F00D1124E851FD4F6181361306C06081BE
:10497000261303C06281E6120FC001968770D5CF5F
:104980009F7011F0882331F3805E883018F3C801DE
:104990000E94551DFD2CB1CFEE2009F4AECF8091C1
:1049A000E60281608093E602F12CA7CF431306C094
:1049B000921304C0F801EE2009F479C0C8010E94E6
:1049C0003A13882309F1EE20F9F08091E602803253
:1049D00070F02091E1023091E20238872F8319862E
:1049E000DB86CA868C87CE0107960E94551D86E01D
:1049F000F801A1EEB2E001900D928A95E1F70E94D4
:104A0000DA23FF24F39479CFC8010E94551DF9CF12
:104A100051110AC081EE92E00E94551D86E0F50119
:104A200011928A95E9F7C0CF43130FC092130DC0BE
:104A3000E1100BC0F8018583C8010E94551D86E076
:104A4000F50111928A95E9F758CFC8010E943A13EF
:104A50008823D1F2EE20C1F28091E602803238F252
:104A60002091E1023091E2023A8329831B82DD82A8
:104A7000CC828E83CE010196B8CFE83CF105F8F6E2
:104A8000FE2CEE2009F243131FC092131DC080912B
:104A9000E60280FD10C0982F907F69F0F8018583B1
:104AA000903F31F0982F907F905F8F70892B858396
:104AB000C8010E94551D86E0F801A1EEB2E0019008
:104AC0000D928A95E1F719CFC8010E943A1381111E
:104AD0008ECF8091E60281608093E602C8010E9439
:104AE000551D0BCFEE2009F48FCFC8010E943A1359
:104AF000F82E882309F488CF86E0F801A1EEB2E011
:104B000001900D928A95E1F78091E1029091E20285
:104B10000E942D130E94DA23F0CE81E08E25FBCE79
:104B2000A7E1B0E0E6E9F5E20C9443324B8B5C8BF5
:104B30006D8B7E8B8F8B6111109222031A8A198ADA
:104B400085E0FE017396DE011D9601900D928A9517
:104B5000E1F786E0FE013D96DE01179601900D9289
:104B60008A95E1F7CE0107960E942F24882359F0F9
:104B700016E0809118039091E702891343C067966D
:104B8000E3E00C945F3286E0FE013796DE01119679
:104B900001900D928A95E1F78A859B85892B41F3D7
:104BA0008F81988589238F3F19F32091E70230E0A8
:104BB000C901019687709927409118034817190673
:104BC00071F40E94D2151092E7021092180386E049
:104BD000E1EEF2E0DF011D928A95E9F7C9CF96E098
:104BE000929FD001939FB00D1124A851BD4FFE019B
:104BF000319601900D929A95E1F78093E7020E9419
:104C0000050CB6CF819FC001112488519D4F0E9491
:104C10002F24882309F4B3CF8091180390E00196E4
:104C20008770992780931803A4CFAAE0B0E0EBE146
:104C3000F6E20C944232182F062F662339F10E94B7
:104C4000EC1C1E832DEF2F8321E0288781609A873B
:104C500089874E815F81688579858A850E94902544
:104C60000023C9F00E94EC1C19832DEF2A831B82BC
:104C700081609D838C8349815A816B817C818D8188
:104C80000E9490252A96E4E00C945E320E94EC1C6F
:104C90001E832CEFD8CF0E94EC1C19832CEFE6CF9B
:104CA000A1E0B0E0E6E5F6E20C943D32EE24E394B8
:104CB000F12C0EE413E09E012F5F3F4F4EE353E0D3
:104CC00064E083E00E94691AC82E882339F100E06D
:104CD00080E01DC0D0906803D00E2D2D30E0A901DA
:104CE0004E575C4F7A01E1E0F0E0EC0FFD1FE00F62
:104CF000F11D1081FA019081191BB12E1B149CF03B
:104D0000912F17FD90E0191B111118C00F5F9091A2
:104D100067030917F8F281110E94F50B8C2D21967B
:104D2000E9E00C945932BA94F70180818F5F808357
:104D300060E08D2D0E9415268C2DE0CF1F5FF701BE
:104D400080818150808361E08D2D0E9415268C2DFD
:104D5000DBCFAFE0B0E0EFEAF6E20C9439328E013F
:104D60000F5F1F4F8AE0D8011D928A95E9F782E90B
:104D7000C82E81E0D82EF12CE12CAA24A394B12CCA
:104D80002DE9822E21E0922EF60181916F018F3F55
:104D900009F442C0F894E82FE295EF70F0E021A109
:104DA0008F70A50102C0440F551F8A95E2F7CA0112
:104DB000922F982B91A392A18095892382A3789416
:104DC00000C0E7E9F1E0712C31E021912F3F09F4B7
:104DD0006BC0A22FA295AF70B0E090968C9190E03E
:104DE0002F7002C0959587952A95E2F780FD5CC0EB
:104DF000832F782A330F8E169F0639F7F6013197E5
:104E000080818F3F11F00E940C0A50EA5A95F1F709
:104E1000F801EE0DFF1D70828FEFE81AF80A95E099
:104E2000E916F10409F0B0CF4AE050E0B80189E694
:104E300093E00E94C332009741F02AE0F801A9E60E
:104E4000B3E001900D922A95E1F700917403892B4C
:104E500069F181E0809328030E94EC1C9093270362
:104E60008093260380912603909127030E94DD1CE6
:104E7000059700F110E00F541C4F45E050E069E643
:104E800073E0C8010E94C332D12C892B51F085E018
:104E9000E9E6F3E0D80101900D928A95E1F7DD246F
:104EA000D3941092280307C080E0A3CF80912803F9
:104EB0008111D8CFD12C0E940B0EC82EE091740323
:104EC000DE011B967D01882309F484C085E01D92D4
:104ED0008A95E9F70E2F10E00F541C4F8091620362
:104EE0008A3008F044C04EE05BE1B701C8010E947F
:104EF000D80D882309F45DC04DE45AE1B701C8011B
:104F00000E94D80D882309F454C040E556E2B70149
:104F1000C8010E94D80D882309F44BC04AE659E124
:104F2000B701C8010E94D80D882309F442C041E2AC
:104F30005AE1B701C8010E94D80D8823D1F110921F
:104F400062038091730390E045E050E0B7018F5415
:104F50009C4F0E94C33221E020932F03892BE1F460
:104F6000C12C8C2D8D292F96EDE00C94553280911B
:104F7000290390912A030E94DD1C843F914008F090
:104F8000B2CF80912F03882359F385E0F701119266
:104F90008A95E9F710922F03A0917303B0E0AF5404
:104FA000BC4F85E0FE013B9601900D928A95E1F79A
:104FB000D8CF809162038F3F31F08F5F809362037F
:104FC0008A3008F4BECF0E94EC1C90932A03809391
:104FD0002903D7CF0091730310E00F541C4FF0E06A
:104FE000EF54FC4F85E0A3E4B3E001900D928A9565
:104FF000E1F765E070E083E493E00E94C8078093E6
:10500000420385E0E8E4F3E0D80101900D928A952F
:10501000E1F74091870350E06091860370E06E579E
:105020007C4FC7010E94D0328B8580934E0361E094
:1050300070E0C7010E94C80780934D0380904F0322
:1050400090905003A0905103B090520380912B0395
:1050500090912C03A0912D03B0912E0388169906F0
:10506000AA06BB06D1F080922B0390922C03A0924B
:105070002D03B0922E030E940B0E81110EC00E94D0
:105080005807861A970AA80AB90A80926303909271
:105090006403A0926503B092660386E0E3E5F3E063
:1050A000A7EEB3E001900D928A95E1F710915903B4
:1050B000112349F08091E503811105C00E94750E0E
:1050C00080E00E9491081093E5034BCF1F921FB61A
:1050D0001F9211248F939F93AF93BF938091B20639
:1050E000811113C08091B3069091B406A091B506CA
:1050F000B091B6064196A11DB11D8093B306909361
:10510000B406A093B506B093B606BF91AF919F9138
:105110008F911F901FBE1F901895CDB7DEB7AF9728
:105120000FB6F894DEBF0FBECDBF85B7806885BFD0
:1051300085B7806885BF84B7877F84BF0FB6F89432
:10514000A895809160008861809360001092600053
:105150000FBE80E890E00FB6F894809361009093C2
:1051600061000FBE8AE09AE09093B7028093B60286
:105170000E94E9050E948A068091E2008460809383
:10518000E20078948091C4068823A1F01091E90090
:105190001F709091EC00892F817090FD80E8182B92
:1051A0001092E9008091E80083FD0E94E8151F70CD
:1051B0001093E90082E084BD93E095BD9AEF97BD1E
:1051C00080936E0010926303109264031092650343
:1051D000109266030E946413811102C00E9467123C
:1051E0000E940B0E809339010E940B0E81110E94C8
:1051F000BE309091390181E0982790938603282F43
:10520000291B209368039091390180938703909123
:1052100039018093670380913901811106C084EFC1
:105220008093430185EF8093420180914301E82FF1
:10523000E295EF70F0E061A18F7021E030E0A9010C
:1052400001C0440F8A95EAF7942F9095962391A375
:1052500082A1842B82A390914201E92FE295EF7005
:10526000F0E041A19F70B90102C0660F771F9A95C7
:10527000E2F7CB01962F9095942391A392A1892BCD
:1052800082A38FE891E00197F1F700C00000109130
:10529000870368E873E043E451E082E4E82E81E0AC
:1052A000F82EFB0128C0DA012D91AD01822F8295E5
:1052B0008F7090E0DC0190968C9190E02F7002C08E
:1052C000959587952A95E2F78170D7019D917D018B
:1052D000292F22952F7030E0D90190962C9130E043
:1052E0009F7002C0359527959A95E2F790E020FDD2
:1052F00092E0892B81938E2F861B8117A0F28091DB
:1053000039018091390195E0811190E09093740307
:1053100085E0891B8093730302E911E0A7E9EA2E77
:10532000A1E0FA2EF80181918F018F3F11F00E94C8
:105330000C0AE016F106B1F707E911E0FDE9EF2EDE
:10534000F1E0FF2ED8018D918D018F3F11F00E9469
:105350000C0AE016F106B1F78AE0E1EBF3E0DF01B9
:10536000282F1D922A95E9F7E9E6F3E0DF011D9267
:105370008A95E9F70E945E19811102C00E943A1BCA
:1053800082E090E00E94E9328093770384E090E02D
:105390000E94F13290938B0380938A030E94A92686
:1053A000BFEFE6E7F1E0B150E040F040E1F700C0C8
:1053B00000000E94A9268091B10380FF08C06FEF12
:1053C0007FEF90E080E00E9425330E94470783E052
:1053D00090E00E94E9320E94DA0C0E945E1981116D
:1053E00004C00E943A1B0E94331981E08093E603B7
:1053F00046E050E06CE170E087EE93E00E94D93225
:105400001092E6038091E7038C7F11F40E94331918
:105410000E940B0E882309F4BAC083E08093AC038A
:1054200080FDB7C080E880939B040E94782F6DE0D8
:1054300070E083E092E00E94EE0C892BE9F5809108
:10544000AC0363E070E081FDA6C080E092E00E94C2
:10545000EE0C892B89F56DE070E080EF91E00E9401
:10546000EE0C892B49F50E945807605A75418F4F01
:105470009F4F6093A6067093A7068093A80690930B
:10548000A906EEE9F4E080E092E0DF019C011D92C4
:1054900021503040E1F7F093A506E093A4068FEF8A
:1054A0009FEF90939D0480939C0481E08093AB06D2
:1054B0008093AA061092AD030E940B0E811102C0C8
:1054C0000E94C1308AE391E09093AF068093AE06CC
:1054D000EBEB2E2EE3E03E2E8091C40670E4F72E17
:1054E00000E112E1853009F49FC00E94A92608E777
:1054F00013E061EB462E63E0562E22E833E0D20142
:10550000F80191918D912E173F0709F499C09817D2
:10551000C1F30E940B0E882E51EBE52E53E0F52EC1
:10552000D12CD701CD907D01F80191908F019C1471
:1055300029F19C24B12CAA24A3948A2D8921B1F0AD
:105540008820A1F0BEA2DFA291E08A2D8C2109F46F
:1055500090E098A70E94EC1C8160782F9AA789A7F9
:105560004EA15FA168A58AA50E949025B394AA0CBC
:10557000F6E0BF12E2CFF8013197C082D3942AE05F
:10558000D212CFCF0E945807CC24C3947AC080E0B7
:1055900045CF80E248CF8DEF91E059CF8091C4068E
:1055A000843009F433C00E94C7188091E50381114B
:1055B00005C00E94750E80E00E94910831E0309392
:1055C000E5030E94180D1092B20668E170E00FB674
:1055D000F894A895609360000FBEF092600083B7C6
:1055E000817F846083BF83B7816083BF789488950F
:1055F00083B78E7F83BF0FB6F894A8958091600023
:10560000886180936000109260000FBE8091C30695
:10561000882351F00E94A926E1EBF3E081918111EA
:1056200048C42E163F06D1F78091C406853009F490
:10563000B5CF0E94D2150E94300E1092E50355CFCF
:10564000981367CF0E94EC1C8C0180917503909198
:10565000760308171907A1F08FEF89A38AA31BA26D
:105660000E94EC1C8160782F9DA38CA349A15AA1B4
:105670006BA18DA10E949025109376030093750372
:10568000C12C0E940B0E0E94C718B12CD12C809106
:105690008703B81608F47CC0D1100E94F50B8091E6
:1056A000AB06882309F42FC18091AE039091AF031C
:1056B0000E94DD1CC29708F406C10E94EC1C909366
:1056C000AF038093AE038EE994E09093A506809398
:1056D000A4060E940B0E60E0882309F459C181E6FC
:1056E00092E00E94CC158091D1060E94DD0C83309F
:1056F00009F0D1C01091E70316951695B090E80314
:10570000E090E903F090EA030091EB0380918B03B2
:1057100060E080FFBDC08CE592E00E94CC1587E57B
:1057200091E00E94021581E00E949915612F84E5A5
:1057300092E00E942D156B2D81E592E00E942D15BF
:105740006E2D8EE492E00E942D156F2D8BE492E079
:105750000E942D15602F88E492E00E942D1560E0D4
:1057600084E492E00E941B158091D1060E94DD0C1A
:10577000813009F401C1882309F4A0C0823009F402
:10578000FFC0833009F400C160E080E192E099C07D
:105790000B2D10E0F801ED5BFE4F8081E82FE295C4
:1057A000EF70F0E0E0A1F0E08F7002C0F595E795B2
:1057B0008A95E2F7E170D801AE5BBE4F2C91A22F23
:1057C000A295AF70B0E090968C9190E02F7002C0DF
:1057D000959587952A95E2F780FD52C080E08E2B43
:1057E000D801A857BC4FEC919E2F9370891709F4EC
:1057F00045C0EE0FEE0FE82BEC93E0908603EB0C28
:10580000EF70F0E0E356FE4F0C571C4F8081D8013B
:105810009C91890F8C93F12C843084F0EE2DF0E074
:10582000EE57FC4F80818F5F80830E940B0EF82E15
:10583000882341F160E08E2D0E941526F8018081B9
:105840008D3F84F4EE2DF0E0EE57FC4F80818150C7
:1058500080830E940B0EF82E8823B9F061E08E2D14
:105860000E941526D8018C91082E000C990B64E03B
:1058700070E00E947732F8018083DF28B39407CF6D
:1058800082E0ADCFFF24F394D9CFFF24F394EACF85
:1058900087E592E042CF60E08AE392E00E941B1528
:1058A0000E94300E81FF06C061E084E392E00E9416
:1058B000CC155ACF60E08EE292E0F9CF60E088E24A
:1058C00092E00E941B1580919C0490919D04892B6D
:1058D00009F061C08091AA068823A9F00E945807A8
:1058E0000091A6061091A7062091A8063091A9065E
:1058F000601B710B820B930B6F3F7F4F8F4F9F4746
:1059000010F40E94180DC11001C0D1100E94330D77
:105910000E94300E9091B003891721F08093B0035C
:105920000E9458078091C406843009F0D5CD83E0E9
:105930008093E9008091E80082FFCECD8091E8005D
:1059400090E085FF06C00E940806882309F403C181
:1059500091E08091E8008B778093E800992309F427
:10596000BBCD8981EFEFE80FE53108F01CC1F0E015
:10597000E857FC4C0C94AD3260E082E292E0A1CF9B
:1059800060E08CE192E09DCF60E086E192E099CF0B
:1059900081E792E096CF8091AB06882309F49ACFF5
:1059A0008091AD03811196CF0E94330D20919C040C
:1059B00030919D042115310509F48CCF80E041E040
:1059C00050E0082F10E07A01082E02C0EE0CFF1CF8
:1059D0000A94E2F7B9016E217F21672B11F48F5FE2
:1059E000F0CF9091AC0390FF9DC0880F880F880F77
:1059F0008093460110924901895F8093470183E0BB
:105A000080934A0124E630E047E050E064E471E02E
:105A100088E70E941830892B09F05CCFA80125E0A7
:105A2000440F551F2A95E1F78091AC0380FF8CC08D
:105A3000ECE8F3E080E2DF011D928A95E9F7E1EB03
:105A4000F1E0FFA7EEA70DEA11E097E0A92E992457
:105A50009394AEA5BFA56D91BFA7AEA7F8018191A4
:105A60008F01840F952F911D9C0122563B4F3DA71E
:105A70002CA7E62FF0E0E457FC4F30E020E06A2D41
:105A8000621B6BA7B92C022E01C0BB0C0A94EAF76B
:105A90006CA47DA490E0D3018D913D018B216BA579
:105AA000691B6770862E062E000C770BB82F01C07D
:105AB000BB0F8A94EAF78B2E719561957109677017
:105AC000772701C086956A95EAF7882A8081882A17
:105AD00080829F5F9830F9F62F5F3F4F31962830D4
